:0400000080316028C3
:100008007E1480314E010D1E0A280B282A28420131
:100018001908F5004E010D12750A031D142815283C
:1000280021287303031D19281A281F285430F000AB
:100038000130F100F30197152A280130F5027508FF
:10004800031D272828281F28F301F30A8D1D2D28B2
:100058002E283D28971D312832283D287508031978
:10006800362837283D28750842019A00F5014E01C7
:1000780097118C1E402841285E28700871040319C6
:10008800462847285E28F20972184B284E28400156
:100098008C14502840018C10721C5328562840019B
:1000A8000C14582840010C100130F0020030F13BCC
:1000B8004E018C127E10090080316228F001F10196
:1000C800F201F301F401F501F6017E1040018031DF
:1000D8006D280230510193001117FC30F7007708A2
:1000E800400192058C100C107E01B8103810803039
:1000F8004B019E0045309F005B309D009C018B1793
:100108000B174E0196168C1242011E159F119C0169
:1001180019309B0005307E01950004307D01CB002D
:100128007E01381242011E129D179E161D164E01A1
:0801380017169D288031602894
:020000040001F9
:08000000FF3FFF3FFF3FFF3F00
:0A000E00ED3FE73FFF3FFF3FFF3FDC
:00000001FF
