:0400000080312628FD
:100008007E1480310130F3007308F0074E010D1E95
:100018000E280F28152842011908F1004E010D126B
:1000280097158D1D182819282428710803191D28CB
:100038001E282428710842019A00F1014E019711E7
:100048007E10090080312828F001F101F2017E10AC
:10005800400180312F280230510193001117FB30E5
:10006800F4007408400192050C1180304B019E0089
:1000780040309F00FF309D009C018B170B174201F9
:100088001E159F119C0119309B0005307E019500BB
:1000980004307D01CB007E01381242011E129D17EB
:0E00A8009E161D164E01171658288031262868
:020000040001F9
:08000000FF3FFF3FFF3FFF3F00
:0A000E00ED3FE73FFF3FFF3FFF3FDC
:00000001FF
