:02000000632873
:100008007E1480312000911E0A280B282B282300FB
:100018001908F50020009112750A031D14281528E7
:1000280022287303031D19281A281F285430F000AA
:100038000130F100F301210011162B280130F502DF
:100048007508031D282829281F28F301F30A200012
:10005800111E2F28302840282100111E3428352849
:1000680040287508031939283A28402875082300BC
:100078009A00F501210011122000901E44284528FD
:1000880061287008710403194A284B286128F2096D
:1000980072184F28522820008C14542820008C10E5
:1000A800721C57285A2820000C145C2820000C10B9
:1000B8000130F0020030F13B90127E1009006428F4
:1000C800F001F101F201F301F401F501F6017E10EE
:1000D80020006E2860303200990003309F001D1701
:1000E800FC30F700770821008C0520008C100C10DC
:1000F80023008C100C1080302000970045309800A9
:100108005B30960095018B170B1721009016200085
:10011800901223001E159F119C0119309B0014306A
:100128003D00950004303C00A40023000C128C1202
:100138001E129D179E161D1621009116A2286328CF
:020000040001F9
:08000000FF3FFF3FFF3FFF3F00
:08000E00EC3FF33FFF3FFF3F11
:00000001FF
