:0400000080313F28E4
:100008007E1480310130F4007408F1074E010D1E92
:100018000E280F282A2842011908F2004E010D1255
:10002800720A031D1828192821287003031D1D288A
:100038001E281F28F00197152A280130F20272089D
:10004800031D272828281F28F001F00A8D1D2D28B8
:100058002E283D28971D312832283D28720803197B
:10006800362837283D28720842019A00F2014E01CD
:1000780097117E10090080314128F001F101F20149
:10008800F3017E104001803149280230510193006C
:100098001117FB30F5007508400192050C118030EE
:1000A8004B019E0040309F00FF309D009C018B1744
:1000B8000B1742011E159F119C0119309B0005303A
:1000C8007E01950004307D01CB007E01381242018B
:1000D8001E129D179E161D164E0117167228803186
:0200E8003F28AF
:020000040001F9
:08000000FF3FFF3FFF3FFF3F00
:0A000E00ED3FE73FFF3FFF3FFF3FDC
:00000001FF
